:020000020000FC
:040000000C9450000C
:040040000C947B00A1
:1000A0000FEF0DBF00E10EBF06E002BF01E003BF8E
:1000B00007BF0027112722272FEF2ABB27BB24BB0E
:1000C00022272BBB28BB25BB22273327AA277894BE
:1000D000EE270C94680077276A3040F06A507395D9
:1000E0006A30E0F7462F572F0C947A00462F50E0E5
:1000F0000C947A00089596E092BF0395083299F423
:1001000013950027143679F4112723952C3359F4CD
:10011000222733953C3339F43327A395A83119F4BA
:10012000AA2733272227622F0E946B00EE27FF2782
:10013000E42FF52FFF0FFF0FFF0FFF0FFE0FFBBB8D
:10014000632F0E946B00EE27FF27E42FF52FFF0F90
:10015000FF0FFF0FFF0FFE0FF8BB6A2F0E946B000F
:10016000EE27FF27E42FF52FFF0FFF0FFF0FFF0FE5
:06017000FE0FF5BB18951F
:00000001FF
